{
  "contractName": "Crowdsale",
  "abi": [
    {
      "constant": true,
      "inputs": [],
      "name": "transferableToken",
      "outputs": [
        {
          "name": "",
          "type": "uint256"
        }
      ],
      "payable": false,
      "stateMutability": "view",
      "type": "function"
    },
    {
      "constant": true,
      "inputs": [],
      "name": "deadline",
      "outputs": [
        {
          "name": "",
          "type": "uint256"
        }
      ],
      "payable": false,
      "stateMutability": "view",
      "type": "function"
    },
    {
      "constant": true,
      "inputs": [
        {
          "name": "",
          "type": "address"
        }
      ],
      "name": "fundersProperty",
      "outputs": [
        {
          "name": "paymentEther",
          "type": "uint256"
        },
        {
          "name": "reservedToken",
          "type": "uint256"
        },
        {
          "name": "withdrawed",
          "type": "bool"
        }
      ],
      "payable": false,
      "stateMutability": "view",
      "type": "function"
    },
    {
      "constant": true,
      "inputs": [],
      "name": "soldToken",
      "outputs": [
        {
          "name": "",
          "type": "uint256"
        }
      ],
      "payable": false,
      "stateMutability": "view",
      "type": "function"
    },
    {
      "constant": true,
      "inputs": [],
      "name": "isOpened",
      "outputs": [
        {
          "name": "",
          "type": "bool"
        }
      ],
      "payable": false,
      "stateMutability": "view",
      "type": "function"
    },
    {
      "constant": true,
      "inputs": [],
      "name": "tokenReward",
      "outputs": [
        {
          "name": "",
          "type": "address"
        }
      ],
      "payable": false,
      "stateMutability": "view",
      "type": "function"
    },
    {
      "constant": true,
      "inputs": [],
      "name": "startTime",
      "outputs": [
        {
          "name": "",
          "type": "uint256"
        }
      ],
      "payable": false,
      "stateMutability": "view",
      "type": "function"
    },
    {
      "constant": true,
      "inputs": [],
      "name": "fundingGoal",
      "outputs": [
        {
          "name": "",
          "type": "uint256"
        }
      ],
      "payable": false,
      "stateMutability": "view",
      "type": "function"
    },
    {
      "constant": true,
      "inputs": [],
      "name": "owner",
      "outputs": [
        {
          "name": "",
          "type": "address"
        }
      ],
      "payable": false,
      "stateMutability": "view",
      "type": "function"
    },
    {
      "constant": true,
      "inputs": [],
      "name": "price",
      "outputs": [
        {
          "name": "",
          "type": "uint256"
        }
      ],
      "payable": false,
      "stateMutability": "view",
      "type": "function"
    },
    {
      "constant": true,
      "inputs": [],
      "name": "fundingGoalReached",
      "outputs": [
        {
          "name": "",
          "type": "bool"
        }
      ],
      "payable": false,
      "stateMutability": "view",
      "type": "function"
    },
    {
      "constant": false,
      "inputs": [
        {
          "name": "_new",
          "type": "address"
        }
      ],
      "name": "transferOwnership",
      "outputs": [],
      "payable": false,
      "stateMutability": "nonpayable",
      "type": "function"
    },
    {
      "inputs": [
        {
          "name": "_fundingGoalInEthers",
          "type": "uint256"
        },
        {
          "name": "_transferableToken",
          "type": "uint256"
        },
        {
          "name": "_amountOfTokenPerEther",
          "type": "uint256"
        },
        {
          "name": "_addressOfTokenUsedAsReward",
          "type": "address"
        }
      ],
      "payable": false,
      "stateMutability": "nonpayable",
      "type": "constructor"
    },
    {
      "payable": true,
      "stateMutability": "payable",
      "type": "fallback"
    },
    {
      "anonymous": false,
      "inputs": [
        {
          "indexed": false,
          "name": "fundingGoal",
          "type": "uint256"
        },
        {
          "indexed": false,
          "name": "deadline",
          "type": "uint256"
        },
        {
          "indexed": false,
          "name": "transferableToken",
          "type": "uint256"
        },
        {
          "indexed": false,
          "name": "beneficiary",
          "type": "address"
        }
      ],
      "name": "CrowdsaleStart",
      "type": "event"
    },
    {
      "anonymous": false,
      "inputs": [
        {
          "indexed": false,
          "name": "backer",
          "type": "address"
        },
        {
          "indexed": false,
          "name": "amount",
          "type": "uint256"
        },
        {
          "indexed": false,
          "name": "token",
          "type": "uint256"
        }
      ],
      "name": "ReservedToken",
      "type": "event"
    },
    {
      "anonymous": false,
      "inputs": [
        {
          "indexed": false,
          "name": "beneficiary",
          "type": "address"
        },
        {
          "indexed": false,
          "name": "fundingGoal",
          "type": "uint256"
        },
        {
          "indexed": false,
          "name": "amountRaised",
          "type": "uint256"
        },
        {
          "indexed": false,
          "name": "reached",
          "type": "bool"
        },
        {
          "indexed": false,
          "name": "raisedToken",
          "type": "uint256"
        }
      ],
      "name": "CheckGoalReached",
      "type": "event"
    },
    {
      "anonymous": false,
      "inputs": [
        {
          "indexed": false,
          "name": "addr",
          "type": "address"
        },
        {
          "indexed": false,
          "name": "amount",
          "type": "uint256"
        },
        {
          "indexed": false,
          "name": "result",
          "type": "bool"
        }
      ],
      "name": "WithdrawalToken",
      "type": "event"
    },
    {
      "anonymous": false,
      "inputs": [
        {
          "indexed": false,
          "name": "addr",
          "type": "address"
        },
        {
          "indexed": false,
          "name": "amount",
          "type": "uint256"
        },
        {
          "indexed": false,
          "name": "result",
          "type": "bool"
        }
      ],
      "name": "WithdrawalEther",
      "type": "event"
    },
    {
      "anonymous": false,
      "inputs": [
        {
          "indexed": false,
          "name": "oldaddr",
          "type": "address"
        },
        {
          "indexed": false,
          "name": "newaddr",
          "type": "address"
        }
      ],
      "name": "TransferOwnership",
      "type": "event"
    },
    {
      "constant": false,
      "inputs": [
        {
          "name": "_durationInMinutes",
          "type": "uint256"
        }
      ],
      "name": "start",
      "outputs": [],
      "payable": false,
      "stateMutability": "nonpayable",
      "type": "function"
    },
    {
      "constant": true,
      "inputs": [],
      "name": "currentSwapRate",
      "outputs": [
        {
          "name": "",
          "type": "uint256"
        }
      ],
      "payable": false,
      "stateMutability": "view",
      "type": "function"
    },
    {
      "constant": true,
      "inputs": [],
      "name": "getRemainingTimeTheToken",
      "outputs": [
        {
          "name": "min",
          "type": "uint256"
        },
        {
          "name": "shortage",
          "type": "uint256"
        },
        {
          "name": "remainToken",
          "type": "uint256"
        }
      ],
      "payable": false,
      "stateMutability": "view",
      "type": "function"
    },
    {
      "constant": false,
      "inputs": [],
      "name": "withdrawalOwner",
      "outputs": [],
      "payable": false,
      "stateMutability": "nonpayable",
      "type": "function"
    },
    {
      "constant": false,
      "inputs": [],
      "name": "withdrawal",
      "outputs": [],
      "payable": false,
      "stateMutability": "nonpayable",
      "type": "function"
    }
  ],
  "bytecode": "0x608060405234801561001057600080fd5b506040516080806117c183398101806040528101908080519060200190929190805190602001909291908051906020019092919080519060200190929190505050336000806101000a81548173ffffffffffffffffffffffffffffffffffffffff021916908373ffffffffffffffffffffffffffffffffffffffff160217905550670de0b6b3a7640000840260018190555081670de0b6b3a76400008115156100b557fe5b046003819055508260048190555080600760006101000a81548173ffffffffffffffffffffffffffffffffffffffff021916908373ffffffffffffffffffffffffffffffffffffffff160217905550505050506116aa806101176000396000f3006080604052600436106100f1576000357c0100000000000000000000000000000000000000000000000000000000900463ffffffff168063163f9b4f1461029057806321365597146102a757806329dcb0cf146102d25780635334c231146102fd5780635627df88146103285780636769d1f914610391578063692aa97e146103bc5780636e66f6e9146103eb57806378e97925146104425780637a3a0e841461046d5780638da5cb5b1461049857806395805dad146104ef578063a035b1fe1461051c578063d424f62814610547578063d4e9329214610576578063da05296b1461058d578063f2fde38b146105c6575b600080600760159054906101000a900460ff168015610111575060025442105b151561011c57600080fd5b3491506064610129610609565b6064016003548481151561013957fe5b040281151561014457fe5b0490506000811415801561015e5750600454816005540111155b151561016957600080fd5b81600860003373ffffffffffffffffffffffffffffffffffffffff1673ffffffffffffffffffffffffffffffffffffffff1681526020019081526020016000206000016000828254019250508190555080600860003373ffffffffffffffffffffffffffffffffffffffff1673ffffffffffffffffffffffffffffffffffffffff16815260200190815260200160002060010160008282540192505081905550806005600082825401925050819055507fead0fad6e7b11ddfb488609871d5558d4fc839131da518a4105c68466683e469338383604051808473ffffffffffffffffffffffffffffffffffffffff1673ffffffffffffffffffffffffffffffffffffffff168152602001838152602001828152602001935050505060405180910390a15050005b34801561029c57600080fd5b506102a5610657565b005b3480156102b357600080fd5b506102bc610b7b565b6040518082815260200191505060405180910390f35b3480156102de57600080fd5b506102e7610b81565b6040518082815260200191505060405180910390f35b34801561030957600080fd5b50610312610609565b6040518082815260200191505060405180910390f35b34801561033457600080fd5b50610369600480360381019080803573ffffffffffffffffffffffffffffffffffffffff169060200190929190505050610b87565b6040518084815260200183815260200182151515158152602001935050505060405180910390f35b34801561039d57600080fd5b506103a6610bbe565b6040518082815260200191505060405180910390f35b3480156103c857600080fd5b506103d1610bc4565b604051808215151515815260200191505060405180910390f35b3480156103f757600080fd5b50610400610bd7565b604051808273ffffffffffffffffffffffffffffffffffffffff1673ffffffffffffffffffffffffffffffffffffffff16815260200191505060405180910390f35b34801561044e57600080fd5b50610457610bfd565b6040518082815260200191505060405180910390f35b34801561047957600080fd5b50610482610c03565b6040518082815260200191505060405180910390f35b3480156104a457600080fd5b506104ad610c09565b604051808273ffffffffffffffffffffffffffffffffffffffff1673ffffffffffffffffffffffffffffffffffffffff16815260200191505060405180910390f35b3480156104fb57600080fd5b5061051a60048036038101908080359060200190929190505050610c2e565b005b34801561052857600080fd5b50610531610f01565b6040518082815260200191505060405180910390f35b34801561055357600080fd5b5061055c610f07565b604051808215151515815260200191505060405180910390f35b34801561058257600080fd5b5061058b610f1a565b005b34801561059957600080fd5b506105a261149f565b60405180848152602001838152602001828152602001935050505060405180910390f35b3480156105d257600080fd5b50610607600480360381019080803573ffffffffffffffffffffffffffffffffffffffff169060200190929190505050611501565b005b60004260b46006540111156106215760649050610654565b4261012c6006540111156106385760329050610654565b4261025860065401111561064f5760149050610654565b600090505b90565b6000806000806000809054906101000a900473ffffffffffffffffffffffffffffffffffffffff1673ffffffffffffffffffffffffffffffffffffffff163373ffffffffffffffffffffffffffffffffffffffff161415156106b857600080fd5b600760159054906101000a900460ff161515156106d457600080fd5b600760149054906101000a900460ff1615610925573073ffffffffffffffffffffffffffffffffffffffff1631935060008411156107b2573373ffffffffffffffffffffffffffffffffffffffff168460405160006040518083038185875af19250505092507f5b8e8dabfb07633926aad60d1498e605e71a8ee067252f388e7ed6228f8a1f9c338585604051808473ffffffffffffffffffffffffffffffffffffffff1673ffffffffffffffffffffffffffffffffffffffff16815260200183815260200182151515158152602001935050505060405180910390a15b600554600454039150600082111561092057600760009054906101000a900473ffffffffffffffffffffffffffffffffffffffff1673ffffffffffffffffffffffffffffffffffffffff1663a9059cbb33600554600454036040518363ffffffff167c0100000000000000000000000000000000000000000000000000000000028152600401808373ffffffffffffffffffffffffffffffffffffffff1673ffffffffffffffffffffffffffffffffffffffff16815260200182815260200192505050600060405180830381600087803b15801561088f57600080fd5b505af11580156108a3573d6000803e3d6000fd5b505050507f860b533173a7b1027d391a00a46e79992fe2f681fc082e49c56ba22db74601c633836001604051808473ffffffffffffffffffffffffffffffffffffffff1673ffffffffffffffffffffffffffffffffffffffff16815260200183815260200182151515158152602001935050505060405180910390a15b610b75565b600760009054906101000a900473ffffffffffffffffffffffffffffffffffffffff1673ffffffffffffffffffffffffffffffffffffffff166370a08231306040518263ffffffff167c0100000000000000000000000000000000000000000000000000000000028152600401808273ffffffffffffffffffffffffffffffffffffffff1673ffffffffffffffffffffffffffffffffffffffff168152602001915050602060405180830381600087803b1580156109e257600080fd5b505af11580156109f6573d6000803e3d6000fd5b505050506040513d6020811015610a0c57600080fd5b81019080805190602001909291905050509050600760009054906101000a900473ffffffffffffffffffffffffffffffffffffffff1673ffffffffffffffffffffffffffffffffffffffff1663a9059cbb33836040518363ffffffff167c0100000000000000000000000000000000000000000000000000000000028152600401808373ffffffffffffffffffffffffffffffffffffffff1673ffffffffffffffffffffffffffffffffffffffff16815260200182815260200192505050600060405180830381600087803b158015610ae457600080fd5b505af1158015610af8573d6000803e3d6000fd5b505050507f860b533173a7b1027d391a00a46e79992fe2f681fc082e49c56ba22db74601c633826001604051808473ffffffffffffffffffffffffffffffffffffffff1673ffffffffffffffffffffffffffffffffffffffff16815260200183815260200182151515158152602001935050505060405180910390a15b50505050565b60045481565b60025481565b60086020528060005260406000206000915090508060000154908060010154908060020160009054906101000a900460ff16905083565b60055481565b600760159054906101000a900460ff1681565b600760009054906101000a900473ffffffffffffffffffffffffffffffffffffffff1681565b60065481565b60015481565b6000809054906101000a900473ffffffffffffffffffffffffffffffffffffffff1681565b6000809054906101000a900473ffffffffffffffffffffffffffffffffffffffff1673ffffffffffffffffffffffffffffffffffffffff163373ffffffffffffffffffffffffffffffffffffffff16141515610c8957600080fd5b600060015414158015610c9f5750600060035414155b8015610cae5750600060045414155b8015610d085750600073ffffffffffffffffffffffffffffffffffffffff16600760009054906101000a900473ffffffffffffffffffffffffffffffffffffffff1673ffffffffffffffffffffffffffffffffffffffff16145b8015610d15575060008114155b8015610d2357506000600654145b1515610d2e57600080fd5b600454600760009054906101000a900473ffffffffffffffffffffffffffffffffffffffff1673ffffffffffffffffffffffffffffffffffffffff166370a08231306040518263ffffffff167c0100000000000000000000000000000000000000000000000000000000028152600401808273ffffffffffffffffffffffffffffffffffffffff1673ffffffffffffffffffffffffffffffffffffffff168152602001915050602060405180830381600087803b158015610dee57600080fd5b505af1158015610e02573d6000803e3d6000fd5b505050506040513d6020811015610e1857600080fd5b8101908080519060200190929190505050101515610efe57426006819055508042016002819055506001600760156101000a81548160ff0219169083151502179055507f6a151b16df8b91a6230549a14ae94cf40f3c9426543b21802dc10201cd35648b6001546002546004546000809054906101000a900473ffffffffffffffffffffffffffffffffffffffff16604051808581526020018481526020018381526020018273ffffffffffffffffffffffffffffffffffffffff1673ffffffffffffffffffffffffffffffffffffffff16815260200194505050505060405180910390a15b50565b60035481565b600760149054906101000a900460ff1681565b600760159054906101000a900460ff1615610f345761149d565b600860003373ffffffffffffffffffffffffffffffffffffffff1673ffffffffffffffffffffffffffffffffffffffff16815260200190815260200160002060020160009054906101000a900460ff16151515610f9057600080fd5b600760149054906101000a900460ff1615611278576000600860003373ffffffffffffffffffffffffffffffffffffffff1673ffffffffffffffffffffffffffffffffffffffff16815260200190815260200160002060010154111561116b57600760009054906101000a900473ffffffffffffffffffffffffffffffffffffffff1673ffffffffffffffffffffffffffffffffffffffff1663a9059cbb33600860003373ffffffffffffffffffffffffffffffffffffffff1673ffffffffffffffffffffffffffffffffffffffff168152602001908152602001600020600101546040518363ffffffff167c0100000000000000000000000000000000000000000000000000000000028152600401808373ffffffffffffffffffffffffffffffffffffffff1673ffffffffffffffffffffffffffffffffffffffff16815260200182815260200192505050600060405180830381600087803b1580156110f757600080fd5b505af115801561110b573d6000803e3d6000fd5b505050506001600860003373ffffffffffffffffffffffffffffffffffffffff1673ffffffffffffffffffffffffffffffffffffffff16815260200190815260200160002060020160006101000a81548160ff0219169083151502179055505b7f860b533173a7b1027d391a00a46e79992fe2f681fc082e49c56ba22db74601c633600860003373ffffffffffffffffffffffffffffffffffffffff1673ffffffffffffffffffffffffffffffffffffffff16815260200190815260200160002060010154600860003373ffffffffffffffffffffffffffffffffffffffff1673ffffffffffffffffffffffffffffffffffffffff16815260200190815260200160002060020160009054906101000a900460ff16604051808473ffffffffffffffffffffffffffffffffffffffff1673ffffffffffffffffffffffffffffffffffffffff16815260200183815260200182151515158152602001935050505060405180910390a161149c565b6000600860003373ffffffffffffffffffffffffffffffffffffffff1673ffffffffffffffffffffffffffffffffffffffff16815260200190815260200160002060000154111561149b573373ffffffffffffffffffffffffffffffffffffffff16600860003373ffffffffffffffffffffffffffffffffffffffff1673ffffffffffffffffffffffffffffffffffffffff1681526020019081526020016000206000015460405160006040518083038185875af19250505015611392576001600860003373ffffffffffffffffffffffffffffffffffffffff1673ffffffffffffffffffffffffffffffffffffffff16815260200190815260200160002060020160006101000a81548160ff0219169083151502179055505b7f5b8e8dabfb07633926aad60d1498e605e71a8ee067252f388e7ed6228f8a1f9c33600860003373ffffffffffffffffffffffffffffffffffffffff1673ffffffffffffffffffffffffffffffffffffffff16815260200190815260200160002060000154600860003373ffffffffffffffffffffffffffffffffffffffff1673ffffffffffffffffffffffffffffffffffffffff16815260200190815260200160002060020160009054906101000a900460ff16604051808473ffffffffffffffffffffffffffffffffffffffff1673ffffffffffffffffffffffffffffffffffffffff16815260200183815260200182151515158152602001935050505060405180910390a15b5b5b565b60008060006002544210156114c257603c42600254038115156114be57fe5b0492505b670de0b6b3a76400003073ffffffffffffffffffffffffffffffffffffffff1631600154038115156114f057fe5b049150600554600454039050909192565b60008060009054906101000a900473ffffffffffffffffffffffffffffffffffffffff1673ffffffffffffffffffffffffffffffffffffffff163373ffffffffffffffffffffffffffffffffffffffff1614151561155e57600080fd5b6000809054906101000a900473ffffffffffffffffffffffffffffffffffffffff169050816000806101000a81548173ffffffffffffffffffffffffffffffffffffffff021916908373ffffffffffffffffffffffffffffffffffffffff1602179055507f5c486528ec3e3f0ea91181cff8116f02bfa350e03b8b6f12e00765adbb5af85c816000809054906101000a900473ffffffffffffffffffffffffffffffffffffffff16604051808373ffffffffffffffffffffffffffffffffffffffff1673ffffffffffffffffffffffffffffffffffffffff1681526020018273ffffffffffffffffffffffffffffffffffffffff1673ffffffffffffffffffffffffffffffffffffffff1681526020019250505060405180910390a150505600a165627a7a72305820d03a6064cc69704902db4bdb4655e7cc169aeafeec0b2c50c64238196c805f7f0029",
  "source": "pragma solidity ^0.4.8;\n\nimport \"./Owned.sol\";\nimport \"./Members.sol\";\nimport \"./Oreorecoin.sol\";\n\ncontract Crowdsale is Owned {\n    uint256 public fundingGoal;\n    uint256 public deadline;\n    uint256 public price;\n    uint256 public transferableToken;\n    uint256 public soldToken;\n    uint256 public startTime;\n    OreOreCoin public tokenReward;\n    bool public fundingGoalReached;\n    bool public isOpened;\n    mapping (address => Property) public fundersProperty;\n\n    struct Property {\n        uint256 paymentEther;\n        uint256 reservedToken;\n        bool withdrawed;\n    }\n\n    event CrowdsaleStart(uint fundingGoal, uint deadline, uint transferableToken, address beneficiary);\n    event ReservedToken(address backer, uint amount, uint token);\n    event CheckGoalReached(address beneficiary, uint fundingGoal, uint amountRaised, bool reached, uint raisedToken);\n    event WithdrawalToken(address addr, uint amount, bool result);\n    event WithdrawalEther(address addr, uint amount, bool result);\n\n    modifier afterDeadline() {\n        require(now < deadline);\n        _;\n    }\n\n    constructor(uint _fundingGoalInEthers, uint _transferableToken, uint _amountOfTokenPerEther, OreOreCoin _addressOfTokenUsedAsReward) public {\n        fundingGoal = _fundingGoalInEthers * 1 ether;\n        price = 1 ether / _amountOfTokenPerEther;\n        transferableToken = _transferableToken;\n        tokenReward = OreOreCoin(_addressOfTokenUsedAsReward);\n    }\n\n    function () payable public {\n        require(isOpened && now < deadline);\n\n        uint amount = msg.value;\n        uint token = amount / price * (100 + currentSwapRate()) / 100;\n\n        require(token != 0 && soldToken + token <= transferableToken);\n\n        fundersProperty[msg.sender].paymentEther += amount;\n        fundersProperty[msg.sender].reservedToken += token;\n        soldToken += token;\n\n        emit ReservedToken(msg.sender, amount, token);\n    }\n\n    function start(uint _durationInMinutes) onlyOwner public {\n        require(fundingGoal != 0 && price != 0 && transferableToken != 0 && tokenReward == address(0) && _durationInMinutes != 0 && startTime == 0);\n\n        if (tokenReward.balanceOf(this) >= transferableToken) {\n            startTime = now;\n            deadline = now + _durationInMinutes;\n            isOpened = true;\n            emit CrowdsaleStart(fundingGoal, deadline, transferableToken, owner);\n        }\n    }\n\n    function currentSwapRate() constant public returns(uint) {\n        if (startTime + 3 minutes > now) {\n            return 100;\n        } else if (startTime + 5 minutes > now) {\n            return 50;\n        } else if (startTime + 10 minutes > now) {\n            return 20;\n        } else {\n            return 0;\n        }\n    }\n\n    function getRemainingTimeTheToken() constant public returns(uint min, uint shortage, uint remainToken) {\n        if (now < deadline) {\n            min = (deadline - now) / (1 minutes);\n        }\n        shortage = (fundingGoal - address(this).balance) / (1 ether);\n        remainToken = transferableToken - soldToken;\n    }\n\n    function withdrawalOwner() onlyOwner public {\n        require(!isOpened);\n\n        if (fundingGoalReached) {\n            uint amount = address(this).balance;\n            if (amount > 0) {\n                bool ok = msg.sender.call.value(amount)();\n                emit WithdrawalEther(msg.sender, amount, ok);\n            }\n            uint val = transferableToken - soldToken;\n            if (val > 0) {\n                tokenReward.transfer(msg.sender, transferableToken - soldToken);\n                emit WithdrawalToken(msg.sender, val, true);\n            }\n        } else {\n            uint val12 = tokenReward.balanceOf(this);\n            tokenReward.transfer(msg.sender, val12);\n            emit WithdrawalToken(msg.sender, val12, true);\n        }\n    }\n\n    function withdrawal() public {\n        if (isOpened) return;\n        require(!fundersProperty[msg.sender].withdrawed);\n\n        if (fundingGoalReached) {\n            if (fundersProperty[msg.sender].reservedToken > 0) {\n                tokenReward.transfer(msg.sender, fundersProperty[msg.sender].reservedToken);\n                fundersProperty[msg.sender].withdrawed = true;\n            }\n            emit WithdrawalToken(msg.sender, fundersProperty[msg.sender].reservedToken, fundersProperty[msg.sender].withdrawed);\n        } else {\n            if (fundersProperty[msg.sender].paymentEther > 0) {\n                if (msg.sender.call.value(fundersProperty[msg.sender].paymentEther)()) {\n                    fundersProperty[msg.sender].withdrawed = true;\n                }\n                emit WithdrawalEther(msg.sender, fundersProperty[msg.sender].paymentEther, fundersProperty[msg.sender].withdrawed);\n            }\n        }\n    }\n\n }\n",
  "sourcePath": "/Users/kotaro/Documents/oreorecoin/contracts/Crowdsale.sol",
  "compiler": {
    "name": "solc",
    "version": "0.4.24+commit.e67f0147.Emscripten.clang"
  },
  "schemaVersion": "2.0.1",
  "updatedAt": "2018-12-03T03:52:10.966Z"
}