{
  "contractName": "Escrow",
  "abi": [
    {
      "constant": true,
      "inputs": [],
      "name": "salesVolume",
      "outputs": [
        {
          "name": "",
          "type": "uint256"
        }
      ],
      "payable": false,
      "stateMutability": "view",
      "type": "function"
    },
    {
      "constant": true,
      "inputs": [],
      "name": "sellingPrice",
      "outputs": [
        {
          "name": "",
          "type": "uint256"
        }
      ],
      "payable": false,
      "stateMutability": "view",
      "type": "function"
    },
    {
      "constant": true,
      "inputs": [],
      "name": "deadline",
      "outputs": [
        {
          "name": "",
          "type": "uint256"
        }
      ],
      "payable": false,
      "stateMutability": "view",
      "type": "function"
    },
    {
      "constant": true,
      "inputs": [],
      "name": "isOpened",
      "outputs": [
        {
          "name": "",
          "type": "bool"
        }
      ],
      "payable": false,
      "stateMutability": "view",
      "type": "function"
    },
    {
      "constant": true,
      "inputs": [],
      "name": "owner",
      "outputs": [
        {
          "name": "",
          "type": "address"
        }
      ],
      "payable": false,
      "stateMutability": "view",
      "type": "function"
    },
    {
      "constant": false,
      "inputs": [
        {
          "name": "_new",
          "type": "address"
        }
      ],
      "name": "transferOwnership",
      "outputs": [],
      "payable": false,
      "stateMutability": "nonpayable",
      "type": "function"
    },
    {
      "constant": true,
      "inputs": [],
      "name": "token",
      "outputs": [
        {
          "name": "",
          "type": "address"
        }
      ],
      "payable": false,
      "stateMutability": "view",
      "type": "function"
    },
    {
      "inputs": [
        {
          "name": "_token",
          "type": "address"
        },
        {
          "name": "_salesVolume",
          "type": "uint256"
        },
        {
          "name": "_priceInEther",
          "type": "uint256"
        }
      ],
      "payable": false,
      "stateMutability": "nonpayable",
      "type": "constructor"
    },
    {
      "payable": true,
      "stateMutability": "payable",
      "type": "fallback"
    },
    {
      "anonymous": false,
      "inputs": [
        {
          "indexed": false,
          "name": "salesVolume",
          "type": "uint256"
        },
        {
          "indexed": false,
          "name": "sellingPrice",
          "type": "uint256"
        },
        {
          "indexed": false,
          "name": "deadline",
          "type": "uint256"
        },
        {
          "indexed": false,
          "name": "beneficiary",
          "type": "address"
        }
      ],
      "name": "EscrowStart",
      "type": "event"
    },
    {
      "anonymous": false,
      "inputs": [
        {
          "indexed": false,
          "name": "addr",
          "type": "address"
        },
        {
          "indexed": false,
          "name": "amount",
          "type": "uint256"
        }
      ],
      "name": "ConfirmedPayment",
      "type": "event"
    },
    {
      "anonymous": false,
      "inputs": [
        {
          "indexed": false,
          "name": "oldaddr",
          "type": "address"
        },
        {
          "indexed": false,
          "name": "newaddr",
          "type": "address"
        }
      ],
      "name": "TransferOwnership",
      "type": "event"
    },
    {
      "constant": false,
      "inputs": [
        {
          "name": "_durationInMinutes",
          "type": "uint256"
        }
      ],
      "name": "start",
      "outputs": [],
      "payable": false,
      "stateMutability": "nonpayable",
      "type": "function"
    },
    {
      "constant": true,
      "inputs": [],
      "name": "getRemainingTime",
      "outputs": [
        {
          "name": "min",
          "type": "uint256"
        }
      ],
      "payable": false,
      "stateMutability": "view",
      "type": "function"
    },
    {
      "constant": false,
      "inputs": [],
      "name": "close",
      "outputs": [],
      "payable": false,
      "stateMutability": "nonpayable",
      "type": "function"
    }
  ],
  "bytecode": "0x608060405234801561001057600080fd5b50604051606080610cc6833981018060405281019080805190602001909291908051906020019092919080519060200190929190505050336000806101000a81548173ffffffffffffffffffffffffffffffffffffffff021916908373ffffffffffffffffffffffffffffffffffffffff16021790555082600160006101000a81548173ffffffffffffffffffffffffffffffffffffffff021916908373ffffffffffffffffffffffffffffffffffffffff16021790555081600281905550670de0b6b3a76400008102600381905550505050610bd4806100f26000396000f3006080604052600436106100a4576000357c0100000000000000000000000000000000000000000000000000000000900463ffffffff1680630aaba4321461024a57806312821b5e1461027557806329dcb0cf146102a057806343d726d6146102cb578063692aa97e146102e25780638da5cb5b1461031157806395805dad14610368578063efb98bcf14610395578063f2fde38b146103c0578063fc0c546a14610403575b6000600560009054906101000a900460ff1680156100c3575060045442105b15156100ce57600080fd5b34905060035481101515156100e257600080fd5b600160009054906101000a900473ffffffffffffffffffffffffffffffffffffffff1673ffffffffffffffffffffffffffffffffffffffff1663a9059cbb336002546040518363ffffffff167c0100000000000000000000000000000000000000000000000000000000028152600401808373ffffffffffffffffffffffffffffffffffffffff1673ffffffffffffffffffffffffffffffffffffffff16815260200182815260200192505050600060405180830381600087803b1580156101a957600080fd5b505af11580156101bd573d6000803e3d6000fd5b505050506000600560006101000a81548160ff0219169083151502179055507fc85e69f622563cd1ca95cff8bc4a6b00684777d35069f350365d996d5774b1813382604051808373ffffffffffffffffffffffffffffffffffffffff1673ffffffffffffffffffffffffffffffffffffffff1681526020018281526020019250505060405180910390a150005b34801561025657600080fd5b5061025f61045a565b6040518082815260200191505060405180910390f35b34801561028157600080fd5b5061028a610460565b6040518082815260200191505060405180910390f35b3480156102ac57600080fd5b506102b5610466565b6040518082815260200191505060405180910390f35b3480156102d757600080fd5b506102e061046c565b005b3480156102ee57600080fd5b506102f76106f6565b604051808215151515815260200191505060405180910390f35b34801561031d57600080fd5b50610326610709565b604051808273ffffffffffffffffffffffffffffffffffffffff1673ffffffffffffffffffffffffffffffffffffffff16815260200191505060405180910390f35b34801561037457600080fd5b506103936004803603810190808035906020019092919050505061072e565b005b3480156103a157600080fd5b506103aa6109e2565b6040518082815260200191505060405180910390f35b3480156103cc57600080fd5b50610401600480360381019080803573ffffffffffffffffffffffffffffffffffffffff169060200190929190505050610a05565b005b34801561040f57600080fd5b50610418610b82565b604051808273ffffffffffffffffffffffffffffffffffffffff1673ffffffffffffffffffffffffffffffffffffffff16815260200191505060405180910390f35b60025481565b60035481565b60045481565b6000809054906101000a900473ffffffffffffffffffffffffffffffffffffffff1673ffffffffffffffffffffffffffffffffffffffff163373ffffffffffffffffffffffffffffffffffffffff161415156104c757600080fd5b600160009054906101000a900473ffffffffffffffffffffffffffffffffffffffff1673ffffffffffffffffffffffffffffffffffffffff1663a9059cbb6000809054906101000a900473ffffffffffffffffffffffffffffffffffffffff16600160009054906101000a900473ffffffffffffffffffffffffffffffffffffffff1673ffffffffffffffffffffffffffffffffffffffff166370a08231306040518263ffffffff167c0100000000000000000000000000000000000000000000000000000000028152600401808273ffffffffffffffffffffffffffffffffffffffff1673ffffffffffffffffffffffffffffffffffffffff168152602001915050602060405180830381600087803b1580156105e457600080fd5b505af11580156105f8573d6000803e3d6000fd5b505050506040513d602081101561060e57600080fd5b81019080805190602001909291905050506040518363ffffffff167c0100000000000000000000000000000000000000000000000000000000028152600401808373ffffffffffffffffffffffffffffffffffffffff1673ffffffffffffffffffffffffffffffffffffffff16815260200182815260200192505050600060405180830381600087803b1580156106a457600080fd5b505af11580156106b8573d6000803e3d6000fd5b505050506000809054906101000a900473ffffffffffffffffffffffffffffffffffffffff1673ffffffffffffffffffffffffffffffffffffffff16ff5b600560009054906101000a900460ff1681565b6000809054906101000a900473ffffffffffffffffffffffffffffffffffffffff1681565b6000809054906101000a900473ffffffffffffffffffffffffffffffffffffffff1673ffffffffffffffffffffffffffffffffffffffff163373ffffffffffffffffffffffffffffffffffffffff1614151561078957600080fd5b600073ffffffffffffffffffffffffffffffffffffffff16600160009054906101000a900473ffffffffffffffffffffffffffffffffffffffff1673ffffffffffffffffffffffffffffffffffffffff16141580156107eb5750600060025414155b80156107fa5750600060035414155b801561080857506000600454145b151561081357600080fd5b600254600160009054906101000a900473ffffffffffffffffffffffffffffffffffffffff1673ffffffffffffffffffffffffffffffffffffffff166370a08231306040518263ffffffff167c0100000000000000000000000000000000000000000000000000000000028152600401808273ffffffffffffffffffffffffffffffffffffffff1673ffffffffffffffffffffffffffffffffffffffff168152602001915050602060405180830381600087803b1580156108d357600080fd5b505af11580156108e7573d6000803e3d6000fd5b505050506040513d60208110156108fd57600080fd5b81019080805190602001909291905050501015156109df57603c810242016004819055506001600560006101000a81548160ff0219169083151502179055507f076e41b4d584386bbd6d346454e45ffb2072f299a6c089ed4c34da00d0f259ca6002546003546004546000809054906101000a900473ffffffffffffffffffffffffffffffffffffffff16604051808581526020018481526020018381526020018273ffffffffffffffffffffffffffffffffffffffff1673ffffffffffffffffffffffffffffffffffffffff16815260200194505050505060405180910390a15b50565b6000600454421015610a0257603c42600454038115156109fe57fe5b0490505b90565b60008060009054906101000a900473ffffffffffffffffffffffffffffffffffffffff1673ffffffffffffffffffffffffffffffffffffffff163373ffffffffffffffffffffffffffffffffffffffff16141515610a6257600080fd5b6000809054906101000a900473ffffffffffffffffffffffffffffffffffffffff169050816000806101000a81548173ffffffffffffffffffffffffffffffffffffffff021916908373ffffffffffffffffffffffffffffffffffffffff1602179055507f5c486528ec3e3f0ea91181cff8116f02bfa350e03b8b6f12e00765adbb5af85c816000809054906101000a900473ffffffffffffffffffffffffffffffffffffffff16604051808373ffffffffffffffffffffffffffffffffffffffff1673ffffffffffffffffffffffffffffffffffffffff1681526020018273ffffffffffffffffffffffffffffffffffffffff1673ffffffffffffffffffffffffffffffffffffffff1681526020019250505060405180910390a15050565b600160009054906101000a900473ffffffffffffffffffffffffffffffffffffffff16815600a165627a7a72305820e87fc6eea00a5af786e6e1d2f44109014dcc25138b72477f6b1348946ca342190029",
  "source": "pragma solidity ^0.4.8;\n\nimport \"./Owned.sol\";\nimport \"./Members.sol\";\nimport \"./Oreorecoin.sol\";\n\ncontract Escrow is Owned {\n    OreOreCoin public token;\n    uint256 public salesVolume;\n    uint256 public sellingPrice;\n    uint256 public deadline;\n    bool public isOpened;\n\n    event EscrowStart(uint salesVolume, uint sellingPrice, uint deadline, address beneficiary);\n    event ConfirmedPayment(address addr, uint amount);\n\n    constructor(OreOreCoin _token, uint256 _salesVolume, uint256 _priceInEther) public {\n        token = OreOreCoin(_token);\n        salesVolume = _salesVolume;\n        sellingPrice = _priceInEther * 1 ether;\n    }\n\n    function () payable public {\n        require(isOpened && now < deadline);\n\n        uint amount = msg.value;\n        require(amount >= sellingPrice);\n\n        token.transfer(msg.sender, salesVolume);\n        isOpened = false;\n        emit ConfirmedPayment(msg.sender, amount);\n    }\n\n    function start(uint256 _durationInMinutes) onlyOwner public {\n        require(token != address(0) && salesVolume != 0 && sellingPrice != 0 && deadline == 0);\n\n        if (token.balanceOf(this) >= salesVolume) {\n            deadline = now + _durationInMinutes * 1 minutes;\n            isOpened = true;\n            emit EscrowStart(salesVolume, sellingPrice, deadline, owner);\n        }\n    }\n\n    function getRemainingTime() constant public returns(uint min) {\n        if (now < deadline) {\n            min = (deadline - now) / (1 minutes);\n        }\n    }\n\n    function close() onlyOwner public {\n        token.transfer(owner, token.balanceOf(this));\n        selfdestruct(owner);\n    }\n}\n",
  "sourcePath": "/Users/kotaro/Documents/oreorecoin/contracts/Escrow.sol",
  "compiler": {
    "name": "solc",
    "version": "0.4.24+commit.e67f0147.Emscripten.clang"
  },
  "schemaVersion": "2.0.1",
  "updatedAt": "2018-12-03T03:52:10.958Z"
}