{
  "contractName": "Members",
  "abi": [
    {
      "constant": true,
      "inputs": [],
      "name": "coin",
      "outputs": [
        {
          "name": "",
          "type": "address"
        }
      ],
      "payable": false,
      "stateMutability": "view",
      "type": "function"
    },
    {
      "constant": true,
      "inputs": [
        {
          "name": "",
          "type": "uint256"
        }
      ],
      "name": "status",
      "outputs": [
        {
          "name": "name",
          "type": "string"
        },
        {
          "name": "times",
          "type": "uint256"
        },
        {
          "name": "sum",
          "type": "uint256"
        },
        {
          "name": "rate",
          "type": "int8"
        }
      ],
      "payable": false,
      "stateMutability": "view",
      "type": "function"
    },
    {
      "constant": true,
      "inputs": [],
      "name": "owner",
      "outputs": [
        {
          "name": "",
          "type": "address"
        }
      ],
      "payable": false,
      "stateMutability": "view",
      "type": "function"
    },
    {
      "constant": true,
      "inputs": [
        {
          "name": "",
          "type": "address"
        }
      ],
      "name": "tradingHistory",
      "outputs": [
        {
          "name": "times",
          "type": "uint256"
        },
        {
          "name": "sum",
          "type": "uint256"
        },
        {
          "name": "statusIndex",
          "type": "uint256"
        }
      ],
      "payable": false,
      "stateMutability": "view",
      "type": "function"
    },
    {
      "constant": false,
      "inputs": [
        {
          "name": "_new",
          "type": "address"
        }
      ],
      "name": "transferOwnership",
      "outputs": [],
      "payable": false,
      "stateMutability": "nonpayable",
      "type": "function"
    },
    {
      "anonymous": false,
      "inputs": [
        {
          "indexed": false,
          "name": "oldaddr",
          "type": "address"
        },
        {
          "indexed": false,
          "name": "newaddr",
          "type": "address"
        }
      ],
      "name": "TransferOwnership",
      "type": "event"
    },
    {
      "constant": false,
      "inputs": [
        {
          "name": "_addr",
          "type": "address"
        }
      ],
      "name": "setCoin",
      "outputs": [],
      "payable": false,
      "stateMutability": "nonpayable",
      "type": "function"
    },
    {
      "constant": false,
      "inputs": [
        {
          "name": "_name",
          "type": "string"
        },
        {
          "name": "_times",
          "type": "uint256"
        },
        {
          "name": "_sum",
          "type": "uint256"
        },
        {
          "name": "_rate",
          "type": "int8"
        }
      ],
      "name": "pushStatus",
      "outputs": [],
      "payable": false,
      "stateMutability": "nonpayable",
      "type": "function"
    },
    {
      "constant": false,
      "inputs": [
        {
          "name": "_index",
          "type": "uint256"
        },
        {
          "name": "_name",
          "type": "string"
        },
        {
          "name": "_times",
          "type": "uint256"
        },
        {
          "name": "_sum",
          "type": "uint256"
        },
        {
          "name": "_rate",
          "type": "int8"
        }
      ],
      "name": "editStatus",
      "outputs": [],
      "payable": false,
      "stateMutability": "nonpayable",
      "type": "function"
    },
    {
      "constant": false,
      "inputs": [
        {
          "name": "_member",
          "type": "address"
        },
        {
          "name": "_value",
          "type": "uint256"
        }
      ],
      "name": "updateHistory",
      "outputs": [],
      "payable": false,
      "stateMutability": "nonpayable",
      "type": "function"
    },
    {
      "constant": true,
      "inputs": [
        {
          "name": "_member",
          "type": "address"
        }
      ],
      "name": "getCashbackRate",
      "outputs": [
        {
          "name": "rate",
          "type": "int8"
        }
      ],
      "payable": false,
      "stateMutability": "view",
      "type": "function"
    }
  ],
  "bytecode": "0x6080604052336000806101000a81548173ffffffffffffffffffffffffffffffffffffffff021916908373ffffffffffffffffffffffffffffffffffffffff160217905550610e6f806100536000396000f3006080604052600436106100a4576000357c0100000000000000000000000000000000000000000000000000000000900463ffffffff16806311df9995146100a9578063390c58741461010057806342d21ef71461015d578063777aff7d1461021e57806382e46b751461026b5780638da5cb5b146102ae57806394c3ab5614610305578063dca9fd5b1461036a578063f2fde38b146103fe578063f7ac561114610441575b600080fd5b3480156100b557600080fd5b506100be6104cb565b604051808273ffffffffffffffffffffffffffffffffffffffff1673ffffffffffffffffffffffffffffffffffffffff16815260200191505060405180910390f35b34801561010c57600080fd5b50610141600480360381019080803573ffffffffffffffffffffffffffffffffffffffff1690602001909291905050506104f1565b604051808260000b60000b815260200191505060405180910390f35b34801561016957600080fd5b506101886004803603810190808035906020019092919050505061056a565b60405180806020018581526020018481526020018360000b60000b8152602001828103825286818151815260200191508051906020019080838360005b838110156101e05780820151818401526020810190506101c5565b50505050905090810190601f16801561020d5780820380516001836020036101000a031916815260200191505b509550505050505060405180910390f35b34801561022a57600080fd5b50610269600480360381019080803573ffffffffffffffffffffffffffffffffffffffff1690602001909291908035906020019092919050505061064e565b005b34801561027757600080fd5b506102ac600480360381019080803573ffffffffffffffffffffffffffffffffffffffff1690602001909291905050506108d8565b005b3480156102ba57600080fd5b506102c361091c565b604051808273ffffffffffffffffffffffffffffffffffffffff1673ffffffffffffffffffffffffffffffffffffffff16815260200191505060405180910390f35b34801561031157600080fd5b50610346600480360381019080803573ffffffffffffffffffffffffffffffffffffffff169060200190929190505050610941565b60405180848152602001838152602001828152602001935050505060405180910390f35b34801561037657600080fd5b506103fc60048036038101908080359060200190929190803590602001908201803590602001908080601f01602080910402602001604051908101604052809392919081815260200183838082843782019150505050505091929192908035906020019092919080359060200190929190803560000b906020019092919050505061096b565b005b34801561040a57600080fd5b5061043f600480360381019080803573ffffffffffffffffffffffffffffffffffffffff169060200190929190505050610a96565b005b34801561044d57600080fd5b506104c9600480360381019080803590602001908201803590602001908080601f01602080910402602001604051908101604052809392919081815260200183838082843782019150505050505091929192908035906020019092919080359060200190929190803560000b9060200190929190505050610c13565b005b600160009054906101000a900473ffffffffffffffffffffffffffffffffffffffff1681565b60006002600360008473ffffffffffffffffffffffffffffffffffffffff1673ffffffffffffffffffffffffffffffffffffffff1681526020019081526020016000206002015481548110151561054457fe5b906000526020600020906004020160030160009054906101000a900460000b9050919050565b60028181548110151561057957fe5b9060005260206000209060040201600091509050806000018054600181600116156101000203166002900480601f0160208091040260200160405190810160405280929190818152602001828054600181600116156101000203166002900480156106255780601f106105fa57610100808354040283529160200191610625565b820191906000526020600020905b81548152906001019060200180831161060857829003601f168201915b5050505050908060010154908060020154908060030160009054906101000a900460000b905084565b6000806000600160009054906101000a900473ffffffffffffffffffffffffffffffffffffffff1673ffffffffffffffffffffffffffffffffffffffff163373ffffffffffffffffffffffffffffffffffffffff161415156106af57600080fd5b6001600360008773ffffffffffffffffffffffffffffffffffffffff1673ffffffffffffffffffffffffffffffffffffffff1681526020019081526020016000206000016000828254019250508190555083600360008773ffffffffffffffffffffffffffffffffffffffff1673ffffffffffffffffffffffffffffffffffffffff16815260200190815260200160002060010160008282540192505081905550600090505b60028054905081101561088a5760028181548110151561077157fe5b906000526020600020906004020160010154600360008773ffffffffffffffffffffffffffffffffffffffff1673ffffffffffffffffffffffffffffffffffffffff168152602001908152602001600020600001541015801561083657506002818154811015156107de57fe5b906000526020600020906004020160020154600360008773ffffffffffffffffffffffffffffffffffffffff1673ffffffffffffffffffffffffffffffffffffffff1681526020019081526020016000206001015410155b8015610874575060028181548110151561084c57fe5b906000526020600020906004020160030160009054906101000a900460000b60000b8260000b125b1561087d578092505b8080600101915050610755565b82600360008773ffffffffffffffffffffffffffffffffffffffff1673ffffffffffffffffffffffffffffffffffffffff168152602001908152602001600020600201819055505050505050565b80600160006101000a81548173ffffffffffffffffffffffffffffffffffffffff021916908373ffffffffffffffffffffffffffffffffffffffff16021790555050565b6000809054906101000a900473ffffffffffffffffffffffffffffffffffffffff1681565b60036020528060005260406000206000915090508060000154908060010154908060020154905083565b6000809054906101000a900473ffffffffffffffffffffffffffffffffffffffff1673ffffffffffffffffffffffffffffffffffffffff163373ffffffffffffffffffffffffffffffffffffffff161415156109c657600080fd5b600280549050851015610a8f57836002868154811015156109e357fe5b90600052602060002090600402016000019080519060200190610a07929190610d1e565b5082600286815481101515610a1857fe5b90600052602060002090600402016001018190555081600286815481101515610a3d57fe5b90600052602060002090600402016002018190555080600286815481101515610a6257fe5b906000526020600020906004020160030160006101000a81548160ff021916908360000b60ff1602179055505b5050505050565b60008060009054906101000a900473ffffffffffffffffffffffffffffffffffffffff1673ffffffffffffffffffffffffffffffffffffffff163373ffffffffffffffffffffffffffffffffffffffff16141515610af357600080fd5b6000809054906101000a900473ffffffffffffffffffffffffffffffffffffffff169050816000806101000a81548173ffffffffffffffffffffffffffffffffffffffff021916908373ffffffffffffffffffffffffffffffffffffffff1602179055507f5c486528ec3e3f0ea91181cff8116f02bfa350e03b8b6f12e00765adbb5af85c816000809054906101000a900473ffffffffffffffffffffffffffffffffffffffff16604051808373ffffffffffffffffffffffffffffffffffffffff1673ffffffffffffffffffffffffffffffffffffffff1681526020018273ffffffffffffffffffffffffffffffffffffffff1673ffffffffffffffffffffffffffffffffffffffff1681526020019250505060405180910390a15050565b6000809054906101000a900473ffffffffffffffffffffffffffffffffffffffff1673ffffffffffffffffffffffffffffffffffffffff163373ffffffffffffffffffffffffffffffffffffffff16141515610c6e57600080fd5b60026080604051908101604052808681526020018581526020018481526020018360000b815250908060018154018082558091505090600182039060005260206000209060040201600090919290919091506000820151816000019080519060200190610cdc929190610d9e565b50602082015181600101556040820151816002015560608201518160030160006101000a81548160ff021916908360000b60ff16021790555050505050505050565b828054600181600116156101000203166002900490600052602060002090601f016020900481019282601f10610d5f57805160ff1916838001178555610d8d565b82800160010185558215610d8d579182015b82811115610d8c578251825591602001919060010190610d71565b5b509050610d9a9190610e1e565b5090565b828054600181600116156101000203166002900490600052602060002090601f016020900481019282601f10610ddf57805160ff1916838001178555610e0d565b82800160010185558215610e0d579182015b82811115610e0c578251825591602001919060010190610df1565b5b509050610e1a9190610e1e565b5090565b610e4091905b80821115610e3c576000816000905550600101610e24565b5090565b905600a165627a7a723058206583e01cf66708fcb6aeeb2a33cb141d8985eac7e09f3e10afb977ec33cb8d830029",
  "source": "pragma solidity ^0.4.8;\n\nimport \"./Owned.sol\";\n\ncontract Members is Owned {\n    address public coin;\n\n    MemberStatus[] public status;\n\n    mapping(address => History) public tradingHistory;\n\n    struct MemberStatus {\n        string name;\n        uint256 times;\n        uint256 sum;\n        int8 rate;\n    }\n\n    struct History {\n        uint256 times;\n        uint256 sum;\n        uint256 statusIndex;\n    }\n\n    modifier onlyCoin() {\n        require(msg.sender == coin);\n        _;\n    }\n\n    function setCoin(address _addr) public {\n        coin = _addr;\n    }\n\n    function pushStatus(string _name, uint256 _times, uint256 _sum, int8 _rate) public onlyOwner {\n        status.push(MemberStatus({\n            name: _name,\n            times: _times,\n            sum: _sum,\n            rate: _rate\n        }));\n    }\n\n    function editStatus(uint256 _index, string _name, uint256 _times, uint256 _sum, int8 _rate) public onlyOwner {\n        if (_index < status.length) {\n            status[_index].name = _name;\n            status[_index].times = _times;\n            status[_index].sum = _sum;\n            status[_index].rate = _rate;\n        }\n    }\n\n    function updateHistory(address _member, uint256 _value) public onlyCoin {\n        tradingHistory[_member].times += 1;\n        tradingHistory[_member].sum += _value;\n\n        uint256 index;\n        int8 tmprate;\n        for (uint i = 0; i < status.length; i++) {\n            if (tradingHistory[_member].times >= status[i].times && tradingHistory[_member].sum >= status[i].sum && tmprate < status[i].rate) {\n                index = i;\n            }\n        }\n        tradingHistory[_member].statusIndex = index;\n    }\n\n    function getCashbackRate(address _member) public view returns (int8 rate) {\n        return status[tradingHistory[_member].statusIndex].rate;\n    }\n}\n",
  "sourcePath": "/Users/kotaro/Documents/oreorecoin/contracts/Members.sol",
  "compiler": {
    "name": "solc",
    "version": "0.4.24+commit.e67f0147.Emscripten.clang"
  },
  "schemaVersion": "2.0.1",
  "updatedAt": "2018-11-28T15:50:46.966Z"
}