{
  "contractName": "OreOreCoin",
  "abi": [
    {
      "constant": true,
      "inputs": [],
      "name": "name",
      "outputs": [
        {
          "name": "",
          "type": "string"
        }
      ],
      "payable": false,
      "stateMutability": "view",
      "type": "function"
    },
    {
      "constant": true,
      "inputs": [],
      "name": "totalSupply",
      "outputs": [
        {
          "name": "",
          "type": "uint256"
        }
      ],
      "payable": false,
      "stateMutability": "view",
      "type": "function"
    },
    {
      "constant": true,
      "inputs": [],
      "name": "decimals",
      "outputs": [
        {
          "name": "",
          "type": "uint8"
        }
      ],
      "payable": false,
      "stateMutability": "view",
      "type": "function"
    },
    {
      "constant": true,
      "inputs": [
        {
          "name": "",
          "type": "address"
        }
      ],
      "name": "blackList",
      "outputs": [
        {
          "name": "",
          "type": "int8"
        }
      ],
      "payable": false,
      "stateMutability": "view",
      "type": "function"
    },
    {
      "constant": true,
      "inputs": [
        {
          "name": "",
          "type": "address"
        }
      ],
      "name": "balanceOf",
      "outputs": [
        {
          "name": "",
          "type": "uint256"
        }
      ],
      "payable": false,
      "stateMutability": "view",
      "type": "function"
    },
    {
      "constant": true,
      "inputs": [],
      "name": "owner",
      "outputs": [
        {
          "name": "",
          "type": "address"
        }
      ],
      "payable": false,
      "stateMutability": "view",
      "type": "function"
    },
    {
      "constant": true,
      "inputs": [
        {
          "name": "",
          "type": "address"
        }
      ],
      "name": "cashbackRate",
      "outputs": [
        {
          "name": "",
          "type": "int8"
        }
      ],
      "payable": false,
      "stateMutability": "view",
      "type": "function"
    },
    {
      "constant": true,
      "inputs": [],
      "name": "symbol",
      "outputs": [
        {
          "name": "",
          "type": "string"
        }
      ],
      "payable": false,
      "stateMutability": "view",
      "type": "function"
    },
    {
      "inputs": [
        {
          "name": "_supply",
          "type": "uint256"
        },
        {
          "name": "_name",
          "type": "string"
        },
        {
          "name": "_symbol",
          "type": "string"
        },
        {
          "name": "_decimals",
          "type": "uint8"
        }
      ],
      "payable": false,
      "stateMutability": "nonpayable",
      "type": "constructor"
    },
    {
      "anonymous": false,
      "inputs": [
        {
          "indexed": true,
          "name": "from",
          "type": "address"
        },
        {
          "indexed": true,
          "name": "to",
          "type": "address"
        },
        {
          "indexed": false,
          "name": "value",
          "type": "uint256"
        }
      ],
      "name": "Transfer",
      "type": "event"
    },
    {
      "anonymous": false,
      "inputs": [
        {
          "indexed": true,
          "name": "target",
          "type": "address"
        }
      ],
      "name": "Blacklisted",
      "type": "event"
    },
    {
      "anonymous": false,
      "inputs": [
        {
          "indexed": true,
          "name": "target",
          "type": "address"
        }
      ],
      "name": "DeleteFromBlacklist",
      "type": "event"
    },
    {
      "anonymous": false,
      "inputs": [
        {
          "indexed": true,
          "name": "from",
          "type": "address"
        },
        {
          "indexed": true,
          "name": "to",
          "type": "address"
        },
        {
          "indexed": false,
          "name": "value",
          "type": "uint256"
        }
      ],
      "name": "RejectedPaymentToBlacklistedAddr",
      "type": "event"
    },
    {
      "anonymous": false,
      "inputs": [
        {
          "indexed": true,
          "name": "from",
          "type": "address"
        },
        {
          "indexed": true,
          "name": "to",
          "type": "address"
        },
        {
          "indexed": false,
          "name": "value",
          "type": "uint256"
        }
      ],
      "name": "RejectedPaymentFromBlacklistedAddr",
      "type": "event"
    },
    {
      "anonymous": false,
      "inputs": [
        {
          "indexed": true,
          "name": "addr",
          "type": "address"
        },
        {
          "indexed": false,
          "name": "rate",
          "type": "int8"
        }
      ],
      "name": "SetCashback",
      "type": "event"
    },
    {
      "anonymous": false,
      "inputs": [
        {
          "indexed": true,
          "name": "from",
          "type": "address"
        },
        {
          "indexed": true,
          "name": "to",
          "type": "address"
        },
        {
          "indexed": false,
          "name": "value",
          "type": "uint256"
        }
      ],
      "name": "Cashback",
      "type": "event"
    },
    {
      "constant": false,
      "inputs": [
        {
          "name": "_addr",
          "type": "address"
        }
      ],
      "name": "blacklisting",
      "outputs": [],
      "payable": false,
      "stateMutability": "nonpayable",
      "type": "function"
    },
    {
      "constant": false,
      "inputs": [
        {
          "name": "_addr",
          "type": "address"
        }
      ],
      "name": "deletedFromBlacklist",
      "outputs": [],
      "payable": false,
      "stateMutability": "nonpayable",
      "type": "function"
    },
    {
      "constant": false,
      "inputs": [
        {
          "name": "_rate",
          "type": "int8"
        }
      ],
      "name": "setCashbackRate",
      "outputs": [],
      "payable": false,
      "stateMutability": "nonpayable",
      "type": "function"
    },
    {
      "constant": false,
      "inputs": [
        {
          "name": "_to",
          "type": "address"
        },
        {
          "name": "_value",
          "type": "uint256"
        }
      ],
      "name": "transfer",
      "outputs": [],
      "payable": false,
      "stateMutability": "nonpayable",
      "type": "function"
    }
  ],
  "bytecode": "0x608060405234801561001057600080fd5b5060405161101f38038061101f8339810180604052810190808051906020019092919080518201929190602001805182019291906020018051906020019092919050505083600460003373ffffffffffffffffffffffffffffffffffffffff1673ffffffffffffffffffffffffffffffffffffffff1681526020019081526020016000208190555082600090805190602001906100ae929190610132565b5081600190805190602001906100c5929190610132565b5080600260006101000a81548160ff021916908360ff1602179055508360038190555033600760006101000a81548173ffffffffffffffffffffffffffffffffffffffff021916908373ffffffffffffffffffffffffffffffffffffffff160217905550505050506101d7565b828054600181600116156101000203166002900490600052602060002090601f016020900481019282601f1061017357805160ff19168380011785556101a1565b828001600101855582156101a1579182015b828111156101a0578251825591602001919060010190610185565b5b5090506101ae91906101b2565b5090565b6101d491905b808211156101d05760008160009055506001016101b8565b5090565b90565b610e39806101e66000396000f3006080604052600436106100ba576000357c0100000000000000000000000000000000000000000000000000000000900463ffffffff16806306fdde03146100bf57806318160ddd1461014f578063313ce5671461017a57806338c38519146101ab57806343d00aa6146101db5780634838d1651461021e57806370a082311461027b5780638a294c60146102d25780638da5cb5b146103155780638f81cc1d1461036c57806395d89b41146103c9578063a9059cbb14610459575b600080fd5b3480156100cb57600080fd5b506100d46104a6565b6040518080602001828103825283818151815260200191508051906020019080838360005b838110156101145780820151818401526020810190506100f9565b50505050905090810190601f1680156101415780820380516001836020036101000a031916815260200191505b509250505060405180910390f35b34801561015b57600080fd5b50610164610544565b6040518082815260200191505060405180910390f35b34801561018657600080fd5b5061018f61054a565b604051808260ff1660ff16815260200191505060405180910390f35b3480156101b757600080fd5b506101d9600480360381019080803560000b906020019092919050505061055d565b005b3480156101e757600080fd5b5061021c600480360381019080803573ffffffffffffffffffffffffffffffffffffffff169060200190929190505050610647565b005b34801561022a57600080fd5b5061025f600480360381019080803573ffffffffffffffffffffffffffffffffffffffff169060200190929190505050610764565b604051808260000b60000b815260200191505060405180910390f35b34801561028757600080fd5b506102bc600480360381019080803573ffffffffffffffffffffffffffffffffffffffff169060200190929190505050610784565b6040518082815260200191505060405180910390f35b3480156102de57600080fd5b50610313600480360381019080803573ffffffffffffffffffffffffffffffffffffffff16906020019092919050505061079c565b005b34801561032157600080fd5b5061032a61089a565b604051808273ffffffffffffffffffffffffffffffffffffffff1673ffffffffffffffffffffffffffffffffffffffff16815260200191505060405180910390f35b34801561037857600080fd5b506103ad600480360381019080803573ffffffffffffffffffffffffffffffffffffffff1690602001909291905050506108c0565b604051808260000b60000b815260200191505060405180910390f35b3480156103d557600080fd5b506103de6108e0565b6040518080602001828103825283818151815260200191508051906020019080838360005b8381101561041e578082015181840152602081019050610403565b50505050905090810190601f16801561044b5780820380516001836020036101000a031916815260200191505b509250505060405180910390f35b34801561046557600080fd5b506104a4600480360381019080803573ffffffffffffffffffffffffffffffffffffffff1690602001909291908035906020019092919050505061097e565b005b60008054600181600116156101000203166002900480601f01602080910402602001604051908101604052809291908181526020018280546001816001161561010002031660029004801561053c5780601f106105115761010080835404028352916020019161053c565b820191906000526020600020905b81548152906001019060200180831161051f57829003601f168201915b505050505081565b60035481565b600260009054906101000a900460ff1681565b60018160000b12156105725760009050610584565b60648160000b131561058357606490505b5b80600660003373ffffffffffffffffffffffffffffffffffffffff1673ffffffffffffffffffffffffffffffffffffffff16815260200190815260200160002060006101000a81548160ff021916908360000b60ff16021790555060018160000b12156105f057600090505b3373ffffffffffffffffffffffffffffffffffffffff167f565a2b9a970027ce579c7554dde15de6357eada7ec126bf124839dd9c3b20d7882604051808260000b60000b815260200191505060405180910390a250565b600760009054906101000a900473ffffffffffffffffffffffffffffffffffffffff1673ffffffffffffffffffffffffffffffffffffffff163373ffffffffffffffffffffffffffffffffffffffff161415156106a357600080fd5b7fffffffffffffffffffffffffffffffffffffffffffffffffffffffffffffffff600560008373ffffffffffffffffffffffffffffffffffffffff1673ffffffffffffffffffffffffffffffffffffffff16815260200190815260200160002060006101000a81548160ff021916908360000b60ff1602179055508073ffffffffffffffffffffffffffffffffffffffff167f2e5392b52e98bf05bdf3784aaec667371398a6ea4fb965a2894852471999bca960405160405180910390a250565b60056020528060005260406000206000915054906101000a900460000b81565b60046020528060005260406000206000915090505481565b600760009054906101000a900473ffffffffffffffffffffffffffffffffffffffff1673ffffffffffffffffffffffffffffffffffffffff163373ffffffffffffffffffffffffffffffffffffffff161415156107f857600080fd5b6001600560008373ffffffffffffffffffffffffffffffffffffffff1673ffffffffffffffffffffffffffffffffffffffff16815260200190815260200160002060006101000a81548160ff021916908360000b60ff1602179055508073ffffffffffffffffffffffffffffffffffffffff167fffa4e6181777692565cf28528fc88fd1516ea86b56da075235fa575af6a4b85560405160405180910390a250565b600760009054906101000a900473ffffffffffffffffffffffffffffffffffffffff1681565b60066020528060005260406000206000915054906101000a900460000b81565b60018054600181600116156101000203166002900480601f0160208091040260200160405190810160405280929190818152602001828054600181600116156101000203166002900480156109765780601f1061094b57610100808354040283529160200191610976565b820191906000526020600020905b81548152906001019060200180831161095957829003601f168201915b505050505081565b600081600460003373ffffffffffffffffffffffffffffffffffffffff1673ffffffffffffffffffffffffffffffffffffffff16815260200190815260200160002054101515156109ce57600080fd5b600460008473ffffffffffffffffffffffffffffffffffffffff1673ffffffffffffffffffffffffffffffffffffffff1681526020019081526020016000205482600460008673ffffffffffffffffffffffffffffffffffffffff1673ffffffffffffffffffffffffffffffffffffffff168152602001908152602001600020540110151515610a5d57600080fd5b6000600560003373ffffffffffffffffffffffffffffffffffffffff1673ffffffffffffffffffffffffffffffffffffffff16815260200190815260200160002060009054906101000a900460000b60000b1315610b1f578273ffffffffffffffffffffffffffffffffffffffff163373ffffffffffffffffffffffffffffffffffffffff167f2a04c84c100a93363ee2e1ab7076505a06b5dd417cccc0d6080ec8285e84f79e846040518082815260200191505060405180910390a3610e08565b6000600560008573ffffffffffffffffffffffffffffffffffffffff1673ffffffffffffffffffffffffffffffffffffffff16815260200190815260200160002060009054906101000a900460000b60000b1315610be1578273ffffffffffffffffffffffffffffffffffffffff163373ffffffffffffffffffffffffffffffffffffffff167fee75d149bb5e330e03f98b125aaa1efcd5864e4e2d5946f23dc6dd30630d5616846040518082815260200191505060405180910390a3610e07565b600090506000600660008573ffffffffffffffffffffffffffffffffffffffff1673ffffffffffffffffffffffffffffffffffffffff16815260200190815260200160002060009054906101000a900460000b60000b1315610c9e57600660008473ffffffffffffffffffffffffffffffffffffffff1673ffffffffffffffffffffffffffffffffffffffff16815260200190815260200160002060009054906101000a900460000b60000b606483811515610c9957fe5b040290505b808203600460003373ffffffffffffffffffffffffffffffffffffffff1673ffffffffffffffffffffffffffffffffffffffff16815260200190815260200160002060008282540392505081905550808203600460008573ffffffffffffffffffffffffffffffffffffffff1673ffffffffffffffffffffffffffffffffffffffff168152602001908152602001600020600082825401925050819055508273ffffffffffffffffffffffffffffffffffffffff163373ffffffffffffffffffffffffffffffffffffffff167fddf252ad1be2c89b69c2b068fc378daa952ba7f163c4a11628f55a4df523b3ef846040518082815260200191505060405180910390a33373ffffffffffffffffffffffffffffffffffffffff168373ffffffffffffffffffffffffffffffffffffffff167f82b105a9603353de51dbdf07d939d19d60f298a181b405653c095bfb286be4c2836040518082815260200191505060405180910390a35b5b5050505600a165627a7a723058208433a5c1e04b971b664f5e503c1adbdd8a787795dfd338f8879dd7ede6faf6580029",
  "source": "pragma solidity ^0.4.18;\n\ncontract OreOreCoin {\n  string public name;\n  string public symbol;\n  uint8 public decimals;\n  uint256 public totalSupply;\n  mapping (address => uint256) public balanceOf;\n  mapping (address => int8) public blackList;\n  mapping (address => int8) public cashbackRate;\n  address public owner;\n\n  modifier onlyOwner() {\n    require(msg.sender == owner);\n    _;\n  }\n\n  event Transfer(address indexed from, address indexed to, uint256 value);\n  event Blacklisted(address indexed  target);\n  event DeleteFromBlacklist(address indexed  target);\n  event RejectedPaymentToBlacklistedAddr(address indexed from, address indexed to, uint256 value);\n  event RejectedPaymentFromBlacklistedAddr(address indexed from, address indexed to, uint256 value);\n  event SetCashback(address indexed addr, int8 rate);\n  event Cashback(address indexed from, address indexed to, uint256 value);\n\n  constructor(uint256 _supply, string _name, string _symbol, uint8 _decimals) public {\n    balanceOf[msg.sender] = _supply;\n    name = _name;\n    symbol = _symbol;\n    decimals = _decimals;\n    totalSupply = _supply;\n    owner = msg.sender;\n  }\n\n  function blacklisting(address _addr) onlyOwner {\n    blackList[_addr] = 1;\n    emit Blacklisted(_addr);\n  }\n\n  function deletedFromBlacklist(address _addr) onlyOwner {\n    blackList[_addr] = -1;\n    emit DeleteFromBlacklist(_addr);\n  }\n\n  function setCashbackRate(int8 _rate) {\n    if (_rate < 1) {\n      _rate = 0;\n    } else if (_rate > 100) {\n      _rate = 100;\n    }\n    cashbackRate[msg.sender] = _rate;\n    if (_rate < 1) {\n      _rate = 0;\n    }\n    emit SetCashback(msg.sender, _rate);\n  }\n\n  function transfer(address _to, uint256 _value) public {\n    require(balanceOf[msg.sender] >= _value);\n    require(balanceOf[_to] + _value >= balanceOf[_to]);\n\n    if (blackList[msg.sender] > 0){\n      emit RejectedPaymentFromBlacklistedAddr(msg.sender, _to, _value);\n    } else if (blackList[_to] > 0) {\n      emit RejectedPaymentToBlacklistedAddr(msg.sender, _to, _value);\n    }else{\n\n      uint256 cashback = 0;\n      if (cashbackRate[_to] > 0) cashback = _value / 100 * uint256(cashbackRate[_to]);\n\n      balanceOf[msg.sender] -= (_value - cashback);\n      balanceOf[_to] += (_value - cashback);\n\n      emit Transfer(msg.sender, _to, _value);\n      emit Cashback(_to, msg.sender, cashback);\n    }\n  }\n}\n\n",
  "sourcePath": "/Users/kotaro/Documents/oreorecoin/contracts/OreOreCoin.sol",
  "compiler": {
    "name": "solc",
    "version": "0.4.24+commit.e67f0147.Emscripten.clang"
  },
  "schemaVersion": "2.0.1",
  "updatedAt": "2018-11-09T16:14:44.390Z"
}